:020000040000FA
:060000003DEF05F01200C7
:020006001200E6
:060008000EEF00F01200F3
:02000E000100EF
:0C001000C30A00007F0000000300000095
:04001C00DACFE4FF54
:10002000E2CFDAFFE9CFE4FFEACFE4FFF6CFE4FF67
:10003000F7CFE4FFF5CFE4FFF3CFE4FFF4CFE4FF25
:10004000FACFE4FF00EE07F0020EE80403E3EECF80
:10005000E4FFFBD700EE00F0050EE80403E3EECF6B
:10006000E4FFFBD7E652D9CFE6FFE1CFD9FF020E7E
:10007000E126000181052AE07450DF6E0A0EDF5C84
:1000800003E00D0EDF5C0EE17F5123E07F6B010E7C
:10009000D8808055806F0CD900091BE00001010E4B
:1000A000816F17D080510A0DF3CF05F0F4CF06F021
:1000B000610E0526000E06227F510524E96E000E12
:1000C0000620EA6EDFCFEFFF7F2B03D0010E74CF47
:1000D000DBFF020EE15C02E2E16AE552E16EE5520D
:1000E000E7CFD9FFE55200EE04F0050EE80403E384
:1000F000E5CFEDFFFBD700EE08F0020EE80403E3C6
:10010000E5CFEDFFFBD7E5CFFAFFE5CFF4FFE5CF75
:10011000F3FFE5CFF5FFE5CFF7FFE5CFF6FFE5CF3E
:10012000EAFFE5CFE9FFE5CFDAFF110000000000AC
:1001300000000000000000000000000000000000BF
:100140000000000012003C0EE66E1DEC05F0E552CA
:100150001200140EE66E1DEC05F0E5521200190EA9
:10016000E66E06EC05F0E5521200E66A010EE66E58
:10017000E66E9AEC02F0E552E552E552FD0E95145A
:10018000956E960EF66E0A0EF76E0900F5CF00F02A
:100190000800F5CF01F0D89001320032D89001323A
:1001A000003200C058FF960EF66E0A0EF76E090078
:1001B000F5CF00F00800F5CF01F0030E00140F0199
:1001C000030BF36EF346F346F346F346CF0E571593
:1001D000F310576FC4DF020E9510956EE66A010E9C
:1001E000E66EE66A9AEC02F0E552E552E55200014D
:1001F000606BE66A47EC04F0E552BA0EE66E0A0E52
:10020000E66EBAEC04F0E552E5521200E66A010E21
:10021000E66EE66E9AEC02F0E552E552E552FD0E0E
:100220009514956E980EF66E0A0EF76E0900F5CFCE
:1002300000F00800F5CF01F0D89001320032D890DC
:100240000132003200C058FF980EF66E0A0EF76EAB
:100250000900F5CF00F00800F5CF01F0030E0014FF
:100260000F01030BF36EF346F346F346F346CF0E4E
:100270005715F310576F73DF020E9510956EE66AEF
:10028000E66A010EE66E9AEC02F0E552E552E5529E
:100290000001010E606FE66A47EC04F0E552B30E10
:1002A000E66E0A0EE66EBAEC04F0E552E552120074
:1002B000D9CFE6FFE1CFD9FFE652DF6A0A0EDF5C55
:1002C00015E2DF50EA6A610FE96E000EEA22EFCF15
:1002D00000F0DF50EA6A6B0FE96E000EEA22EF5081
:1002E000005C02E0000E03D0DF2AE8D7010EE552E1
:1002F000E552E7CFD9FF1200D9CFE6FFE1CFD9FF12
:10030000030EE126010EDB6A020EF36E010EDBCF57
:10031000F4FFF350F45C4FE2010EF36E020EF3CFE4
:10032000DBFFDF6A0A0EDF5C2FE2010E0001D880DE
:1003300080550A0DF3CF01F0F4CF02F0610E0126D3
:10034000000E0222DF500124E96E000E0220EA6E48
:10035000EFCF00F0010EDB500A0DF3CF03F0F4CF26
:1003600004F09A0E03260A0E0422DF500324F66ED0
:10037000000E0420F76E0800F550005C03E0020E4A
:10038000DB6A02D0DF2ACED7020EDB5011E0010E6D
:100390000001D88080550A0DF3CFE9FFF4CFEAFFC2
:1003A000610EE926000EEA220A0EEF6E010E04D05D
:1003B000010EDB2AA9D7000E006E030EE15C02E2FB
:1003C000E16AE552E16E0050E552E7CFD9FF120035
:1003D000D26A300ED36E94680F013A6B280EC66E47
:1003E0000D0EC86E956A3B6B839C958E3B9F9582E4
:1003F000900E716E7298A38A190E756E7284706A6F
:10040000D09EF28CF28E486BBB68060EBA6E0C0E54
:10041000576F140EE66EF8EC02F0E552600EE66ED1
:1004200085EC04F0E552E66A47EC04F0E552AE0EC6
:10043000E66E0A0EE66EBAEC04F0E552E552E6DE30
:1004400000018105FDE158DF00091AE0838C190ED7
:10045000E66E1DEC05F0E552839CE66A150EE66E2D
:100460005CEC02F0E552E5520001605104E07DDEF3
:100470000001606B08D0CADE0001010E606F03D07E
:0C048000838C6DDE839C0001816BDAD759
:04048C00200E00013D
:100490008311836FE66E150EE66E0ED8E552E552B7
:1004A0001200DF0E00018315836FE66E150EE66EF7
:1004B00003D8E552E5521200D9CFE6FFE1CFD9FFCC
:1004C000C580C5B0FED7400EC96EC7B4FED7FE0EBC
:1004D000DB50C96EC7B4FED7FD0EDB50C96EC7B482
:1004E000FED7C584C5B4FED7E552E7CFD9FF1200C9
:1004F000D9CFE6FFE1CFD9FFC580C5B0FED7400E0A
:10050000C96EC7B4FED7FE0EDB50C96EC7B4FED7A6
:10051000C582C5B2FED7410EC96EC7B4FED7C58627
:10052000C5B6FED7C584C5B4FED7C950E552E7CFDE
:10053000D9FF1200D9CFE6FFE1CFD9FFFC0EDB5087
:1005400002E0000E01D0010E006EFE0E00018315C8
:100550000010836FFD0EDB5002E0000E01D0010E93
:10056000800DF3CF01F0FE0EDB5002E0000E01D053
:10057000010E400DF3500110006E1F0E8215001089
:10058000826FE66E140EE66E97DFE552E55283C089
:10059000E6FF150EE66E90DFE552E552E552E7CF35
:1005A000D9FF1200D9CFE6FFE1CFD9FFFE0EDB5015
:1005B000330B040DFE0EDB50CC0BE840E8403F0B44
:1005C000F310E76EFE0EE7CFDBFFDB50550BE824A0
:1005D000006EFE0EDB50AA0BE8407F0B0010E76EAA
:1005E000FE0EE7CFDBFFDB50E552E7CFD9FF12006D
:1005F000D9CFE6FFE1CFD9FF1F0EE66EE66A5CECCD
:1006000002F0E552E552E66A010EE66E5CEC02F09D
:10061000E552E5520001E00E826F0001836BE66E49
:10062000140EE66E5CEC02F0E552E55283C0E6FF84
:10063000150EE66E5CEC02F0E552E552A3EC00F01C
:100640000C0EE66E85EC04F0E552050EE66E06EC47
:1006500005F0E5520C0EE66E85EC04F0E552010E55
:10066000E66E06EC05F0E5520C0EE66E85EC04F045
:10067000E552C7EC03F00009FCE1C7EC03F0000908
:10068000FCE1FE0EDBCFE6FF85EC04F0E552C7ECA3
:1006900003F00009FCE1100EE66E85EC04F0E55273
:1006A000C7EC03F00009FCE1F00EE66E85EC04F007
:1006B000E552C7EC03F00009FCE1010EE66E85ECA3
:1006C00004F0E552C7EC03F00009FCE1200EE66EF1
:1006D00085EC04F0E552C7EC03F00009FCE1800E64
:1006E000E66E47EC04F0E552E552E7CFD9FF120081
:1006F0000E0EF66E000EF76E000EF86E0001090089
:10070000F5507A6F0900F5507B6F03E17A6701D0ED
:100710003DD00900F550756F0900F550766F09005E
:10072000F550776F09000900F550E96E0900F550A2
:10073000EA6E090009000900F550786F0900F550CC
:10074000796F09000900F6CF7CF0F7CF7DF0F8CF84
:100750007EF075C0F6FF76C0F7FF77C0F8FF0001A6
:10076000785302E1795307E00900F550EE6E7807FF
:10077000F8E27907F9D77CC0F6FF7DC0F7FF7EC0AD
:0E078000F8FF00017A07000E7B5BBFD7120066
:02078E00C00E9B
:100790000001831351EC02F01E0EE66E010EE66EB0
:1007A0005CEC02F0E552E55283C0E6FF150EE66E02
:1007B0005CEC02F0E552E55296EC00F046EC02F0FB
:1007C00096EC00F0130EE66E78EC02F0E5520001B4
:1007D000846F51EC02F096EC00F046EC02F096ECDF
:1007E00000F051EC02F00001839D83C0E6FF150E7E
:1007F000E66E5CEC02F0E552E552E66A010EE66E4A
:100800005CEC02F0E552E552000184B3010C000CEF
:10081000D9CFE6FFE1CFD9FFFE0EDBCFE6FFD2EC6A
:1008200002F0E552E76EFE0EE7CFDBFF010E00019E
:100830008315006EFE0EDB50E8241E0B0010836F44
:10084000838F83C0E6FF150EE66E5CEC02F0E55286
:10085000E55296EC00F046EC02F096EC00F051EC1C
:1008600002F0E10E00018317FE0EDB40E840E84095
:100870001F0B1E0B831396EC00F046EC02F096EC77
:0E08800000F051EC02F0E552E7CFD9FF120074
:02088E00D9CFC0
:10089000E6FFE1CFD9FF010E00018315006EFE0EC9
:1008A000DB508009E840E840E8401F0B1E0B0010B9
:1008B000836FE66E150EE66E5CEC02F0E552E552D3
:1008C00096EC00F046EC02F096EC00F051EC02F0F1
:1008D000010E00018315006EFE0EDB500F0BE824A5
:1008E0000010836FE66E150EE66E5CEC02F0E552CA
:1008F000E55296EC00F046EC02F096EC00F051EC7C
:0A09000002F0E552E7CFD9FF120024
:06090A00D9CFE6FFE1CFAA
:10091000D9FF010E00018315006EFE0EDB50E824A6
:100920001E0B0010836FE66E150EE66E5CEC02F097
:10093000E552E55296EC00F046EC02F096EC00F041
:1009400051EC02F0010E00018315006EFE0EDB403B
:10095000E840E8401F0B1E0B0010836F96EC00F080
:1009600046EC02F096EC00F051EC02F0E552E7CFD5
:04097000D9FF120099
:0C097400D9CFE6FFE1CFD9FFFD0EDBCFAD
:10098000F6FFFE0EDBCFF7FF0800F55016E0C7ECD0
:1009900003F00009FCE1FD0EDBCFF6FFFE0EDBCF1E
:1009A000F7FF0800F550E66E08EC04F0E552FD0E86
:1009B000DB2AFE0EE3E3DB2AE1D7E552E7CFD9FFDE
:0209C000120023
:0E09C200D9CFE6FFE1CFD9FFFD0EDBCFE9FF75
:1009D000FE0EDBCFEAFFEF5015E0C7EC03F0000995
:1009E000FCE1FD0EDBCFE9FFFE0EDBCFEAFFEF50AF
:1009F000E66E08EC04F0E552FD0EDB2AFE0EE5E3A0
:0C0A0000DB2AE3D7E552E7CFD9FF120054
:040A0C00FF0EE350A6
:100A10000A6EEF0E01D0F30EE76EE72E0DEF05F034
:100A20000C0E096EE76AE72E13EF05F0092E12EFA0
:0A0A300005F00A2E0BEF05F012008E
:060A3A00FF0EE3500A6EFE
:100A4000480E01D04C0EE76EE72EFED7E76AE72E80
:0A0A5000FED70A2EF7D700001200AF
:060A5A00000EF36E00EE39
:100A600000F0060E01D81200EA6002D0EE6AFCD750
:0A0A7000F350E9601200EE6AFCD7B3
:060A7A0015EE00F025EE70
:100A800000F0F86A089C78EC03F003EC00F0E8EC66
:060A900001F0FBD712008B
:0A0A96007D003F003037303033455B
:0E0AA00041383841353030303344464630342A
:020AAE0054658D
:100AB0007374004C6F636B656400556E6C6F636B91
:030AC0006564006A
:030AC30000000030
:020000040030CA
:010001006896
:010002000FEE
:0100030030CC
:01000500B545
:0100060001F8
:00000001FF
